{
  "_format": "hh-sol-artifact-1",
  "contractName": "NFTContract",
  "sourceName": "contracts/NFTContract.sol",
  "abi": [
    {
      "inputs": [],
      "stateMutability": "nonpayable",
      "type": "constructor"
    },
    {
      "anonymous": false,
      "inputs": [
        {
          "indexed": false,
          "internalType": "bool",
          "name": "",
          "type": "bool"
        },
        {
          "indexed": false,
          "internalType": "bytes",
          "name": "",
          "type": "bytes"
        }
      ],
      "name": "CallResponseEvent",
      "type": "event"
    },
    {
      "inputs": [
        {
          "internalType": "address",
          "name": "token",
          "type": "address"
        },
        {
          "internalType": "int64",
          "name": "serial",
          "type": "int64"
        }
      ],
      "name": "claimNft",
      "outputs": [
        {
          "internalType": "int256",
          "name": "",
          "type": "int256"
        }
      ],
      "stateMutability": "nonpayable",
      "type": "function"
    },
    {
      "inputs": [
        {
          "internalType": "int64",
          "name": "",
          "type": "int64"
        }
      ],
      "name": "claimed",
      "outputs": [
        {
          "internalType": "bool",
          "name": "",
          "type": "bool"
        }
      ],
      "stateMutability": "view",
      "type": "function"
    },
    {
      "inputs": [
        {
          "internalType": "string",
          "name": "name",
          "type": "string"
        },
        {
          "internalType": "string",
          "name": "symbol",
          "type": "string"
        },
        {
          "internalType": "string",
          "name": "memo",
          "type": "string"
        },
        {
          "internalType": "int64",
          "name": "maxSupply",
          "type": "int64"
        },
        {
          "internalType": "int64",
          "name": "autoRenewPeriod",
          "type": "int64"
        }
      ],
      "name": "createNft",
      "outputs": [
        {
          "internalType": "address",
          "name": "",
          "type": "address"
        }
      ],
      "stateMutability": "payable",
      "type": "function"
    },
    {
      "inputs": [
        {
          "internalType": "int64",
          "name": "serial",
          "type": "int64"
        }
      ],
      "name": "getClaimerAddress",
      "outputs": [
        {
          "internalType": "address",
          "name": "",
          "type": "address"
        }
      ],
      "stateMutability": "view",
      "type": "function"
    },
    {
      "inputs": [
        {
          "internalType": "int64",
          "name": "serial",
          "type": "int64"
        }
      ],
      "name": "isNftClaimed",
      "outputs": [
        {
          "internalType": "bool",
          "name": "",
          "type": "bool"
        }
      ],
      "stateMutability": "view",
      "type": "function"
    },
    {
      "inputs": [
        {
          "internalType": "address",
          "name": "token",
          "type": "address"
        },
        {
          "internalType": "bytes[]",
          "name": "metadata",
          "type": "bytes[]"
        },
        {
          "internalType": "address",
          "name": "allowedClaimer",
          "type": "address"
        }
      ],
      "name": "mintNftForUser",
      "outputs": [
        {
          "internalType": "int64",
          "name": "",
          "type": "int64"
        }
      ],
      "stateMutability": "nonpayable",
      "type": "function"
    },
    {
      "inputs": [
        {
          "internalType": "int64",
          "name": "",
          "type": "int64"
        }
      ],
      "name": "nftClaimRights",
      "outputs": [
        {
          "internalType": "address",
          "name": "",
          "type": "address"
        }
      ],
      "stateMutability": "view",
      "type": "function"
    },
    {
      "inputs": [],
      "name": "owner",
      "outputs": [
        {
          "internalType": "address",
          "name": "",
          "type": "address"
        }
      ],
      "stateMutability": "view",
      "type": "function"
    },
    {
      "inputs": [
        {
          "internalType": "address",
          "name": "token",
          "type": "address"
        },
        {
          "internalType": "bytes",
          "name": "encodedFunctionSelector",
          "type": "bytes"
        }
      ],
      "name": "redirectForToken",
      "outputs": [
        {
          "internalType": "int256",
          "name": "responseCode",
          "type": "int256"
        },
        {
          "internalType": "bytes",
          "name": "response",
          "type": "bytes"
        }
      ],
      "stateMutability": "nonpayable",
      "type": "function"
    },
    {
      "inputs": [
        {
          "internalType": "address",
          "name": "token",
          "type": "address"
        },
        {
          "internalType": "address",
          "name": "from",
          "type": "address"
        },
        {
          "internalType": "address",
          "name": "to",
          "type": "address"
        },
        {
          "internalType": "uint256",
          "name": "amount",
          "type": "uint256"
        }
      ],
      "name": "transferFrom",
      "outputs": [
        {
          "internalType": "int64",
          "name": "responseCode",
          "type": "int64"
        }
      ],
      "stateMutability": "nonpayable",
      "type": "function"
    },
    {
      "inputs": [
        {
          "internalType": "address",
          "name": "token",
          "type": "address"
        },
        {
          "internalType": "address",
          "name": "from",
          "type": "address"
        },
        {
          "internalType": "address",
          "name": "to",
          "type": "address"
        },
        {
          "internalType": "uint256",
          "name": "serialNumber",
          "type": "uint256"
        }
      ],
      "name": "transferFromNFT",
      "outputs": [
        {
          "internalType": "int64",
          "name": "responseCode",
          "type": "int64"
        }
      ],
      "stateMutability": "nonpayable",
      "type": "function"
    }
  ],
  "bytecode": "0x60806040523480156200001157600080fd5b5060018060008060068111156200002d576200002c62000232565b5b600681111562000042576200004162000232565b5b8152602001908152602001600020819055506002600160006001600681111562000071576200007062000232565b5b600681111562000086576200008562000232565b5b81526020019081526020016000208190555060046001600060026006811115620000b557620000b462000232565b5b6006811115620000ca57620000c962000232565b5b81526020019081526020016000208190555060086001600060036006811115620000f957620000f862000232565b5b60068111156200010e576200010d62000232565b5b815260200190815260200160002081905550601060016000600460068111156200013d576200013c62000232565b5b600681111562000152576200015162000232565b5b8152602001908152602001600020819055506020600160006005600681111562000181576200018062000232565b5b600681111562000196576200019562000232565b5b815260200190815260200160002081905550604060016000600680811115620001c457620001c362000232565b5b6006811115620001d957620001d862000232565b5b81526020019081526020016000208190555033600260006101000a81548173ffffffffffffffffffffffffffffffffffffffff021916908373ffffffffffffffffffffffffffffffffffffffff16021790555062000261565b7f4e487b7100000000000000000000000000000000000000000000000000000000600052602160045260246000fd5b61275080620002716000396000f3fe60806040526004361061009c5760003560e01c80639b23d3d9116100645780639b23d3d9146101c1578063b6c907a6146101fe578063c985c6521461022e578063d689332f1461026b578063e0a6ad65146102a8578063f1d9d8df146102e55761009c565b806302f6ef87146100a157806315dacbea146100de578063618dc65e1461011b578063836993e2146101595780638da5cb5b14610196575b600080fd5b3480156100ad57600080fd5b506100c860048036038101906100c3919061141d565b610322565b6040516100d5919061148b565b60405180910390f35b3480156100ea57600080fd5b5061010560048036038101906101009190611508565b610355565b604051610112919061157e565b60405180910390f35b34801561012757600080fd5b50610142600480360381019061013d91906116df565b610473565b6040516101509291906117d3565b60405180910390f35b34801561016557600080fd5b50610180600480360381019061017b919061141d565b6105cf565b60405161018d919061181e565b60405180910390f35b3480156101a257600080fd5b506101ab6105ff565b6040516101b8919061148b565b60405180910390f35b3480156101cd57600080fd5b506101e860048036038101906101e39190611508565b610625565b6040516101f5919061157e565b60405180910390f35b610218600480360381019061021391906118da565b610743565b604051610225919061148b565b60405180910390f35b34801561023a57600080fd5b506102556004803603810190610250919061141d565b61096b565b604051610262919061148b565b60405180910390f35b34801561027757600080fd5b50610292600480360381019061028d919061141d565b6109ae565b60405161029f919061181e565b60405180910390f35b3480156102b457600080fd5b506102cf60048036038101906102ca9190611a8f565b6109ce565b6040516102dc919061157e565b60405180910390f35b3480156102f157600080fd5b5061030c60048036038101906103079190611afe565b610b54565b6040516103199190611b3e565b60405180910390f35b60036020528060005260406000206000915054906101000a900473ffffffffffffffffffffffffffffffffffffffff1681565b600080600061016773ffffffffffffffffffffffffffffffffffffffff166315dacbea60e01b888888886040516024016103929493929190611b68565b604051602081830303815290604052907bffffffffffffffffffffffffffffffffffffffffffffffffffffffff19166020820180517bffffffffffffffffffffffffffffffffffffffffffffffffffffffff83818316178352505050506040516103fc9190611be9565b6000604051808303816000865af19150503d8060008114610439576040519150601f19603f3d011682016040523d82523d6000602084013e61043e565b606091505b50915091508161044f576015610464565b808060200190518101906104639190611c39565b5b60030b92505050949350505050565b6000606060008061016773ffffffffffffffffffffffffffffffffffffffff1663618dc65e60e01b87876040516024016104ae929190611c66565b604051602081830303815290604052907bffffffffffffffffffffffffffffffffffffffffffffffffffffffff19166020820180517bffffffffffffffffffffffffffffffffffffffffffffffffffffffff83818316178352505050506040516105189190611be9565b6000604051808303816000865af19150503d8060008114610555576040519150601f19603f3d011682016040523d82523d6000602084013e61055a565b606091505b50915091507f4af4780e06fe8cb9df64b0794fa6f01399af979175bb988e35e0e57e594567bc8282604051610590929190611c96565b60405180910390a1816105b4576015604051806020016040528060008152506105b8565b6016815b8160030b9150809450819550505050509250929050565b6000600460008360070b60070b815260200190815260200160002060009054906101000a900460ff169050919050565b600260009054906101000a900473ffffffffffffffffffffffffffffffffffffffff1681565b600080600061016773ffffffffffffffffffffffffffffffffffffffff16639b23d3d960e01b888888886040516024016106629493929190611b68565b604051602081830303815290604052907bffffffffffffffffffffffffffffffffffffffffffffffffffffffff19166020820180517bffffffffffffffffffffffffffffffffffffffffffffffffffffffff83818316178352505050506040516106cc9190611be9565b6000604051808303816000865af19150503d8060008114610709576040519150601f19603f3d011682016040523d82523d6000602084013e61070e565b606091505b50915091508161071f576015610734565b808060200190518101906107339190611c39565b5b60030b92505050949350505050565b6000600260009054906101000a900473ffffffffffffffffffffffffffffffffffffffff1673ffffffffffffffffffffffffffffffffffffffff163373ffffffffffffffffffffffffffffffffffffffff16146107d5576040517f08c379a00000000000000000000000000000000000000000000000000000000081526004016107cc90611d49565b60405180910390fd5b6000600167ffffffffffffffff8111156107f2576107f16115b4565b5b60405190808252806020026020018201604052801561082b57816020015b6108186112a7565b8152602001906001900390816108105790505b50905061083b6004600130610cf6565b8160008151811061084f5761084e611d69565b5b60200260200101819052506108626112c7565b87816000018190525086816020018190525085816060018190525030816040019073ffffffffffffffffffffffffffffffffffffffff16908173ffffffffffffffffffffffffffffffffffffffff16815250506001816080019015159081151581525050848160a0019060070b908160070b81525050818160e0018190525060008160c00190151590811515815250506108fc3085610d2d565b81610100018190525060008061091183610d85565b91509150601660030b821461095b576040517f08c379a000000000000000000000000000000000000000000000000000000000815260040161095290611e0a565b60405180910390fd5b8094505050505095945050505050565b6000600360008360070b60070b815260200190815260200160002060009054906101000a900473ffffffffffffffffffffffffffffffffffffffff169050919050565b60046020528060005260406000206000915054906101000a900460ff1681565b6000600260009054906101000a900473ffffffffffffffffffffffffffffffffffffffff1673ffffffffffffffffffffffffffffffffffffffff163373ffffffffffffffffffffffffffffffffffffffff1614610a60576040517f08c379a0000000000000000000000000000000000000000000000000000000008152600401610a5790611d49565b60405180910390fd5b600080610a6f86600087610ef4565b9250509150601660030b8214610aba576040517f08c379a0000000000000000000000000000000000000000000000000000000008152600401610ab190611e9c565b60405180910390fd5b836003600083600081518110610ad357610ad2611d69565b5b602002602001015160070b60070b815260200190815260200160002060006101000a81548173ffffffffffffffffffffffffffffffffffffffff021916908373ffffffffffffffffffffffffffffffffffffffff16021790555080600081518110610b4157610b40611d69565b5b6020026020010151925050509392505050565b60003373ffffffffffffffffffffffffffffffffffffffff16600360008460070b60070b815260200190815260200160002060009054906101000a900473ffffffffffffffffffffffffffffffffffffffff1673ffffffffffffffffffffffffffffffffffffffff1614610bfd576040517f08c379a0000000000000000000000000000000000000000000000000000000008152600401610bf490611f2e565b60405180910390fd5b600460008360070b60070b815260200190815260200160002060009054906101000a900460ff1615610c64576040517f08c379a0000000000000000000000000000000000000000000000000000000008152600401610c5b90611f9a565b60405180910390fd5b6000610c728430338661106c565b9050601660030b8114610cba576040517f08c379a0000000000000000000000000000000000000000000000000000000008152600401610cb19061202c565b60405180910390fd5b6001600460008560070b60070b815260200190815260200160002060006101000a81548160ff0219169083151502179055508091505092915050565b610cfe6112a7565b6040518060400160405280610d128661118a565b8152602001610d2185856111cb565b81525090509392505050565b610d35611336565b82816020019073ffffffffffffffffffffffffffffffffffffffff16908173ffffffffffffffffffffffffffffffffffffffff168152505081816040019060070b908160070b8152505092915050565b6000808260008161010001516000015160070b148015610db1575060008161010001516040015160070b145b15610dd4576276a70060030b8161010001516040019060070b908160070b815250505b60008061016773ffffffffffffffffffffffffffffffffffffffff163463ea83f29360e01b88604051602401610e0a91906123bf565b604051602081830303815290604052907bffffffffffffffffffffffffffffffffffffffffffffffffffffffff19166020820180517bffffffffffffffffffffffffffffffffffffffffffffffffffffffff8381831617835250505050604051610e749190611be9565b60006040518083038185875af1925050503d8060008114610eb1576040519150601f19603f3d011682016040523d82523d6000602084013e610eb6565b606091505b509150915081610ec95760156000610ede565b80806020019051810190610edd919061241f565b5b8160030b91508095508196505050505050915091565b600080606060008061016773ffffffffffffffffffffffffffffffffffffffff1663e0f4059a60e01b898989604051602401610f3293929190612521565b604051602081830303815290604052907bffffffffffffffffffffffffffffffffffffffffffffffffffffffff19166020820180517bffffffffffffffffffffffffffffffffffffffffffffffffffffffff8381831617835250505050604051610f9c9190611be9565b6000604051808303816000865af19150503d8060008114610fd9576040519150601f19603f3d011682016040523d82523d6000602084013e610fde565b606091505b50915091508161103a57601560008067ffffffffffffffff811115611006576110056115b4565b5b6040519080825280602002602001820160405280156110345781602001602082028036833780820191505090505b5061104f565b8080602001905181019061104e9190612637565b5b8260030b9250809550819650829750505050505093509350939050565b600080600061016773ffffffffffffffffffffffffffffffffffffffff16635cfc901160e01b888888886040516024016110a994939291906126a6565b604051602081830303815290604052907bffffffffffffffffffffffffffffffffffffffffffffffffffffffff19166020820180517bffffffffffffffffffffffffffffffffffffffffffffffffffffffff83818316178352505050506040516111139190611be9565b6000604051808303816000865af19150503d8060008114611150576040519150601f19603f3d011682016040523d82523d6000602084013e611155565b606091505b50915091508161116657601561117b565b8080602001905181019061117a9190611c39565b5b60030b92505050949350505050565b6000600160008360068111156111a3576111a26126eb565b5b60068111156111b5576111b46126eb565b5b8152602001908152602001600020549050919050565b6111d3611373565b600160048111156111e7576111e66126eb565b5b8360048111156111fa576111f96126eb565b5b0361123c5781816020019073ffffffffffffffffffffffffffffffffffffffff16908173ffffffffffffffffffffffffffffffffffffffff16815250506112a1565b60048081111561124f5761124e6126eb565b5b836004811115611262576112616126eb565b5b036112a05781816080019073ffffffffffffffffffffffffffffffffffffffff16908173ffffffffffffffffffffffffffffffffffffffff16815250505b5b92915050565b6040518060400160405280600081526020016112c1611373565b81525090565b6040518061012001604052806060815260200160608152602001600073ffffffffffffffffffffffffffffffffffffffff16815260200160608152602001600015158152602001600060070b815260200160001515815260200160608152602001611330611336565b81525090565b6040518060600160405280600060070b8152602001600073ffffffffffffffffffffffffffffffffffffffff168152602001600060070b81525090565b6040518060a00160405280600015158152602001600073ffffffffffffffffffffffffffffffffffffffff1681526020016060815260200160608152602001600073ffffffffffffffffffffffffffffffffffffffff1681525090565b6000604051905090565b600080fd5b600080fd5b60008160070b9050919050565b6113fa816113e4565b811461140557600080fd5b50565b600081359050611417816113f1565b92915050565b600060208284031215611433576114326113da565b5b600061144184828501611408565b91505092915050565b600073ffffffffffffffffffffffffffffffffffffffff82169050919050565b60006114758261144a565b9050919050565b6114858161146a565b82525050565b60006020820190506114a0600083018461147c565b92915050565b6114af8161146a565b81146114ba57600080fd5b50565b6000813590506114cc816114a6565b92915050565b6000819050919050565b6114e5816114d2565b81146114f057600080fd5b50565b600081359050611502816114dc565b92915050565b60008060008060808587031215611522576115216113da565b5b6000611530878288016114bd565b9450506020611541878288016114bd565b9350506040611552878288016114bd565b9250506060611563878288016114f3565b91505092959194509250565b611578816113e4565b82525050565b6000602082019050611593600083018461156f565b92915050565b600080fd5b600080fd5b6000601f19601f8301169050919050565b7f4e487b7100000000000000000000000000000000000000000000000000000000600052604160045260246000fd5b6115ec826115a3565b810181811067ffffffffffffffff8211171561160b5761160a6115b4565b5b80604052505050565b600061161e6113d0565b905061162a82826115e3565b919050565b600067ffffffffffffffff82111561164a576116496115b4565b5b611653826115a3565b9050602081019050919050565b82818337600083830152505050565b600061168261167d8461162f565b611614565b90508281526020810184848401111561169e5761169d61159e565b5b6116a9848285611660565b509392505050565b600082601f8301126116c6576116c5611599565b5b81356116d684826020860161166f565b91505092915050565b600080604083850312156116f6576116f56113da565b5b6000611704858286016114bd565b925050602083013567ffffffffffffffff811115611725576117246113df565b5b611731858286016116b1565b9150509250929050565b6000819050919050565b61174e8161173b565b82525050565b600081519050919050565b600082825260208201905092915050565b60005b8381101561178e578082015181840152602081019050611773565b60008484015250505050565b60006117a582611754565b6117af818561175f565b93506117bf818560208601611770565b6117c8816115a3565b840191505092915050565b60006040820190506117e86000830185611745565b81810360208301526117fa818461179a565b90509392505050565b60008115159050919050565b61181881611803565b82525050565b6000602082019050611833600083018461180f565b92915050565b600067ffffffffffffffff821115611854576118536115b4565b5b61185d826115a3565b9050602081019050919050565b600061187d61187884611839565b611614565b9050828152602081018484840111156118995761189861159e565b5b6118a4848285611660565b509392505050565b600082601f8301126118c1576118c0611599565b5b81356118d184826020860161186a565b91505092915050565b600080600080600060a086880312156118f6576118f56113da565b5b600086013567ffffffffffffffff811115611914576119136113df565b5b611920888289016118ac565b955050602086013567ffffffffffffffff811115611941576119406113df565b5b61194d888289016118ac565b945050604086013567ffffffffffffffff81111561196e5761196d6113df565b5b61197a888289016118ac565b935050606061198b88828901611408565b925050608061199c88828901611408565b9150509295509295909350565b600067ffffffffffffffff8211156119c4576119c36115b4565b5b602082029050602081019050919050565b600080fd5b60006119ed6119e8846119a9565b611614565b90508083825260208201905060208402830185811115611a1057611a0f6119d5565b5b835b81811015611a5757803567ffffffffffffffff811115611a3557611a34611599565b5b808601611a4289826116b1565b85526020850194505050602081019050611a12565b5050509392505050565b600082601f830112611a7657611a75611599565b5b8135611a868482602086016119da565b91505092915050565b600080600060608486031215611aa857611aa76113da565b5b6000611ab6868287016114bd565b935050602084013567ffffffffffffffff811115611ad757611ad66113df565b5b611ae386828701611a61565b9250506040611af4868287016114bd565b9150509250925092565b60008060408385031215611b1557611b146113da565b5b6000611b23858286016114bd565b9250506020611b3485828601611408565b9150509250929050565b6000602082019050611b536000830184611745565b92915050565b611b62816114d2565b82525050565b6000608082019050611b7d600083018761147c565b611b8a602083018661147c565b611b97604083018561147c565b611ba46060830184611b59565b95945050505050565b600081905092915050565b6000611bc382611754565b611bcd8185611bad565b9350611bdd818560208601611770565b80840191505092915050565b6000611bf58284611bb8565b915081905092915050565b60008160030b9050919050565b611c1681611c00565b8114611c2157600080fd5b50565b600081519050611c3381611c0d565b92915050565b600060208284031215611c4f57611c4e6113da565b5b6000611c5d84828501611c24565b91505092915050565b6000604082019050611c7b600083018561147c565b8181036020830152611c8d818461179a565b90509392505050565b6000604082019050611cab600083018561180f565b8181036020830152611cbd818461179a565b90509392505050565b600082825260208201905092915050565b7f4f6e6c79206f776e65722063616e2063616c6c20746869732066756e6374696f60008201527f6e00000000000000000000000000000000000000000000000000000000000000602082015250565b6000611d33602183611cc6565b9150611d3e82611cd7565b604082019050919050565b60006020820190508181036000830152611d6281611d26565b9050919050565b7f4e487b7100000000000000000000000000000000000000000000000000000000600052603260045260246000fd5b7f4661696c656420746f20637265617465206e6f6e2d66756e6769626c6520746f60008201527f6b656e0000000000000000000000000000000000000000000000000000000000602082015250565b6000611df4602383611cc6565b9150611dff82611d98565b604082019050919050565b60006020820190508181036000830152611e2381611de7565b9050919050565b7f4661696c656420746f206d696e74206e6f6e2d66756e6769626c6520746f6b6560008201527f6e00000000000000000000000000000000000000000000000000000000000000602082015250565b6000611e86602183611cc6565b9150611e9182611e2a565b604082019050919050565b60006020820190508181036000830152611eb581611e79565b9050919050565b7f596f7520617265206e6f7420617574686f72697a656420746f20636c61696d2060008201527f74686973204e4654000000000000000000000000000000000000000000000000602082015250565b6000611f18602883611cc6565b9150611f2382611ebc565b604082019050919050565b60006020820190508181036000830152611f4781611f0b565b9050919050565b7f4e46542068617320616c7265616479206265656e20636c61696d656400000000600082015250565b6000611f84601c83611cc6565b9150611f8f82611f4e565b602082019050919050565b60006020820190508181036000830152611fb381611f77565b9050919050565b7f4661696c656420746f207472616e73666572206e6f6e2d66756e6769626c652060008201527f746f6b656e000000000000000000000000000000000000000000000000000000602082015250565b6000612016602583611cc6565b915061202182611fba565b604082019050919050565b6000602082019050818103600083015261204581612009565b9050919050565b600081519050919050565b600082825260208201905092915050565b60006120738261204c565b61207d8185612057565b935061208d818560208601611770565b612096816115a3565b840191505092915050565b6120aa8161146a565b82525050565b6120b981611803565b82525050565b6120c8816113e4565b82525050565b600081519050919050565b600082825260208201905092915050565b6000819050602082019050919050565b612103816114d2565b82525050565b600082825260208201905092915050565b600061212582611754565b61212f8185612109565b935061213f818560208601611770565b612148816115a3565b840191505092915050565b600060a08301600083015161216b60008601826120b0565b50602083015161217e60208601826120a1565b5060408301518482036040860152612196828261211a565b915050606083015184820360608601526121b0828261211a565b91505060808301516121c560808601826120a1565b508091505092915050565b60006040830160008301516121e860008601826120fa565b50602083015184820360208601526122008282612153565b9150508091505092915050565b600061221983836121d0565b905092915050565b6000602082019050919050565b6000612239826120ce565b61224381856120d9565b935083602082028501612255856120ea565b8060005b858110156122915784840389528151612272858261220d565b945061227d83612221565b925060208a01995050600181019050612259565b50829750879550505050505092915050565b6060820160008201516122b960008501826120bf565b5060208201516122cc60208501826120a1565b5060408201516122df60408501826120bf565b50505050565b60006101608301600083015184820360008601526123038282612068565b9150506020830151848203602086015261231d8282612068565b915050604083015161233260408601826120a1565b506060830151848203606086015261234a8282612068565b915050608083015161235f60808601826120b0565b5060a083015161237260a08601826120bf565b5060c083015161238560c08601826120b0565b5060e083015184820360e086015261239d828261222e565b9150506101008301516123b46101008601826122a3565b508091505092915050565b600060208201905081810360008301526123d981846122e5565b905092915050565b60006123ec8261144a565b9050919050565b6123fc816123e1565b811461240757600080fd5b50565b600081519050612419816123f3565b92915050565b60008060408385031215612436576124356113da565b5b600061244485828601611c24565b92505060206124558582860161240a565b9150509250929050565b600081519050919050565b600082825260208201905092915050565b6000819050602082019050919050565b6000612497838361211a565b905092915050565b6000602082019050919050565b60006124b78261245f565b6124c1818561246a565b9350836020820285016124d38561247b565b8060005b8581101561250f57848403895281516124f0858261248b565b94506124fb8361249f565b925060208a019950506001810190506124d7565b50829750879550505050505092915050565b6000606082019050612536600083018661147c565b612543602083018561156f565b818103604083015261255581846124ac565b9050949350505050565b60008151905061256e816113f1565b92915050565b600067ffffffffffffffff82111561258f5761258e6115b4565b5b602082029050602081019050919050565b60006125b36125ae84612574565b611614565b905080838252602082019050602084028301858111156125d6576125d56119d5565b5b835b818110156125ff57806125eb888261255f565b8452602084019350506020810190506125d8565b5050509392505050565b600082601f83011261261e5761261d611599565b5b815161262e8482602086016125a0565b91505092915050565b6000806000606084860312156126505761264f6113da565b5b600061265e86828701611c24565b935050602061266f8682870161255f565b925050604084015167ffffffffffffffff8111156126905761268f6113df565b5b61269c86828701612609565b9150509250925092565b60006080820190506126bb600083018761147c565b6126c8602083018661147c565b6126d5604083018561147c565b6126e2606083018461156f565b95945050505050565b7f4e487b7100000000000000000000000000000000000000000000000000000000600052602160045260246000fdfea264697066735822122051db1df0f20a3d0f46ca7dfe18c76da7431ff1e7db964cec45939efdbe0ea63064736f6c63430008120033",
  "linkReferences": {},
  "deployedLinkReferences": {}
}