{
  "_format": "hh-sol-artifact-1",
  "contractName": "NFTContract",
  "sourceName": "contracts/NFTContract.sol",
  "abi": [
    {
      "inputs": [],
      "stateMutability": "nonpayable",
      "type": "constructor"
    },
    {
      "anonymous": false,
      "inputs": [
        {
          "indexed": false,
          "internalType": "bool",
          "name": "",
          "type": "bool"
        },
        {
          "indexed": false,
          "internalType": "bytes",
          "name": "",
          "type": "bytes"
        }
      ],
      "name": "CallResponseEvent",
      "type": "event"
    },
    {
      "anonymous": false,
      "inputs": [
        {
          "indexed": true,
          "internalType": "address",
          "name": "minter",
          "type": "address"
        }
      ],
      "name": "MinterAdded",
      "type": "event"
    },
    {
      "anonymous": false,
      "inputs": [
        {
          "indexed": true,
          "internalType": "address",
          "name": "minter",
          "type": "address"
        }
      ],
      "name": "MinterRemoved",
      "type": "event"
    },
    {
      "inputs": [
        {
          "internalType": "address",
          "name": "minter",
          "type": "address"
        }
      ],
      "name": "addMinter",
      "outputs": [],
      "stateMutability": "nonpayable",
      "type": "function"
    },
    {
      "inputs": [
        {
          "internalType": "address",
          "name": "",
          "type": "address"
        }
      ],
      "name": "authorizedMinters",
      "outputs": [
        {
          "internalType": "bool",
          "name": "",
          "type": "bool"
        }
      ],
      "stateMutability": "view",
      "type": "function"
    },
    {
      "inputs": [
        {
          "internalType": "address",
          "name": "token",
          "type": "address"
        },
        {
          "internalType": "int64",
          "name": "serial",
          "type": "int64"
        }
      ],
      "name": "claimNft",
      "outputs": [
        {
          "internalType": "int256",
          "name": "",
          "type": "int256"
        }
      ],
      "stateMutability": "nonpayable",
      "type": "function"
    },
    {
      "inputs": [
        {
          "internalType": "int64",
          "name": "",
          "type": "int64"
        }
      ],
      "name": "claimed",
      "outputs": [
        {
          "internalType": "bool",
          "name": "",
          "type": "bool"
        }
      ],
      "stateMutability": "view",
      "type": "function"
    },
    {
      "inputs": [
        {
          "internalType": "string",
          "name": "name",
          "type": "string"
        },
        {
          "internalType": "string",
          "name": "symbol",
          "type": "string"
        },
        {
          "internalType": "string",
          "name": "memo",
          "type": "string"
        },
        {
          "internalType": "int64",
          "name": "maxSupply",
          "type": "int64"
        },
        {
          "internalType": "int64",
          "name": "autoRenewPeriod",
          "type": "int64"
        }
      ],
      "name": "createNft",
      "outputs": [
        {
          "internalType": "address",
          "name": "",
          "type": "address"
        }
      ],
      "stateMutability": "payable",
      "type": "function"
    },
    {
      "inputs": [
        {
          "internalType": "int64",
          "name": "serial",
          "type": "int64"
        }
      ],
      "name": "getClaimerAddress",
      "outputs": [
        {
          "internalType": "address",
          "name": "",
          "type": "address"
        }
      ],
      "stateMutability": "view",
      "type": "function"
    },
    {
      "inputs": [
        {
          "internalType": "address",
          "name": "account",
          "type": "address"
        }
      ],
      "name": "isMinter",
      "outputs": [
        {
          "internalType": "bool",
          "name": "",
          "type": "bool"
        }
      ],
      "stateMutability": "view",
      "type": "function"
    },
    {
      "inputs": [
        {
          "internalType": "int64",
          "name": "serial",
          "type": "int64"
        }
      ],
      "name": "isNftClaimed",
      "outputs": [
        {
          "internalType": "bool",
          "name": "",
          "type": "bool"
        }
      ],
      "stateMutability": "view",
      "type": "function"
    },
    {
      "inputs": [
        {
          "internalType": "address",
          "name": "token",
          "type": "address"
        },
        {
          "internalType": "bytes[]",
          "name": "metadata",
          "type": "bytes[]"
        },
        {
          "internalType": "address",
          "name": "allowedClaimer",
          "type": "address"
        }
      ],
      "name": "mintNftForUser",
      "outputs": [
        {
          "internalType": "int64",
          "name": "",
          "type": "int64"
        }
      ],
      "stateMutability": "nonpayable",
      "type": "function"
    },
    {
      "inputs": [
        {
          "internalType": "int64",
          "name": "",
          "type": "int64"
        }
      ],
      "name": "nftClaimRights",
      "outputs": [
        {
          "internalType": "address",
          "name": "",
          "type": "address"
        }
      ],
      "stateMutability": "view",
      "type": "function"
    },
    {
      "inputs": [],
      "name": "owner",
      "outputs": [
        {
          "internalType": "address",
          "name": "",
          "type": "address"
        }
      ],
      "stateMutability": "view",
      "type": "function"
    },
    {
      "inputs": [
        {
          "internalType": "address",
          "name": "token",
          "type": "address"
        },
        {
          "internalType": "bytes",
          "name": "encodedFunctionSelector",
          "type": "bytes"
        }
      ],
      "name": "redirectForToken",
      "outputs": [
        {
          "internalType": "int256",
          "name": "responseCode",
          "type": "int256"
        },
        {
          "internalType": "bytes",
          "name": "response",
          "type": "bytes"
        }
      ],
      "stateMutability": "nonpayable",
      "type": "function"
    },
    {
      "inputs": [
        {
          "internalType": "address",
          "name": "minter",
          "type": "address"
        }
      ],
      "name": "removeMinter",
      "outputs": [],
      "stateMutability": "nonpayable",
      "type": "function"
    },
    {
      "inputs": [
        {
          "internalType": "address",
          "name": "token",
          "type": "address"
        },
        {
          "internalType": "address",
          "name": "from",
          "type": "address"
        },
        {
          "internalType": "address",
          "name": "to",
          "type": "address"
        },
        {
          "internalType": "uint256",
          "name": "amount",
          "type": "uint256"
        }
      ],
      "name": "transferFrom",
      "outputs": [
        {
          "internalType": "int64",
          "name": "responseCode",
          "type": "int64"
        }
      ],
      "stateMutability": "nonpayable",
      "type": "function"
    },
    {
      "inputs": [
        {
          "internalType": "address",
          "name": "token",
          "type": "address"
        },
        {
          "internalType": "address",
          "name": "from",
          "type": "address"
        },
        {
          "internalType": "address",
          "name": "to",
          "type": "address"
        },
        {
          "internalType": "uint256",
          "name": "serialNumber",
          "type": "uint256"
        }
      ],
      "name": "transferFromNFT",
      "outputs": [
        {
          "internalType": "int64",
          "name": "responseCode",
          "type": "int64"
        }
      ],
      "stateMutability": "nonpayable",
      "type": "function"
    }
  ],
  "bytecode": "0x60806040523480156200001157600080fd5b5060018060008060068111156200002d576200002c6200028a565b5b60068111156200004257620000416200028a565b5b815260200190815260200160002081905550600260016000600160068111156200007157620000706200028a565b5b60068111156200008657620000856200028a565b5b81526020019081526020016000208190555060046001600060026006811115620000b557620000b46200028a565b5b6006811115620000ca57620000c96200028a565b5b81526020019081526020016000208190555060086001600060036006811115620000f957620000f86200028a565b5b60068111156200010e576200010d6200028a565b5b815260200190815260200160002081905550601060016000600460068111156200013d576200013c6200028a565b5b60068111156200015257620001516200028a565b5b815260200190815260200160002081905550602060016000600560068111156200018157620001806200028a565b5b60068111156200019657620001956200028a565b5b815260200190815260200160002081905550604060016000600680811115620001c457620001c36200028a565b5b6006811115620001d957620001d86200028a565b5b81526020019081526020016000208190555033600260006101000a81548173ffffffffffffffffffffffffffffffffffffffff021916908373ffffffffffffffffffffffffffffffffffffffff1602179055506001600360003373ffffffffffffffffffffffffffffffffffffffff1673ffffffffffffffffffffffffffffffffffffffff16815260200190815260200160002060006101000a81548160ff021916908315150217905550620002b9565b7f4e487b7100000000000000000000000000000000000000000000000000000000600052602160045260246000fd5b612fbd80620002c96000396000f3fe6080604052600436106100e85760003560e01c80639b23d3d91161008a578063c985c65211610059578063c985c65214610346578063d689332f14610383578063e0a6ad65146103c0578063f1d9d8df146103fd576100e8565b80639b23d3d91461025f578063aa271e1a1461029c578063aa2fe91b146102d9578063b6c907a614610316576100e8565b8063618dc65e116100c6578063618dc65e14610190578063836993e2146101ce5780638da5cb5b1461020b578063983b2d5614610236576100e8565b806302f6ef87146100ed57806315dacbea1461012a5780633092afd514610167575b600080fd5b3480156100f957600080fd5b50610114600480360381019061010f9190611a1b565b61043a565b6040516101219190611a89565b60405180910390f35b34801561013657600080fd5b50610151600480360381019061014c9190611b06565b61046d565b60405161015e9190611b7c565b60405180910390f35b34801561017357600080fd5b5061018e60048036038101906101899190611b97565b61058b565b005b34801561019c57600080fd5b506101b760048036038101906101b29190611d0a565b6107d5565b6040516101c5929190611dfe565b60405180910390f35b3480156101da57600080fd5b506101f560048036038101906101f09190611a1b565b610931565b6040516102029190611e49565b60405180910390f35b34801561021757600080fd5b50610220610961565b60405161022d9190611a89565b60405180910390f35b34801561024257600080fd5b5061025d60048036038101906102589190611b97565b610987565b005b34801561026b57600080fd5b5061028660048036038101906102819190611b06565b610bb1565b6040516102939190611b7c565b60405180910390f35b3480156102a857600080fd5b506102c360048036038101906102be9190611b97565b610ccf565b6040516102d09190611e49565b60405180910390f35b3480156102e557600080fd5b5061030060048036038101906102fb9190611b97565b610d25565b60405161030d9190611e49565b60405180910390f35b610330600480360381019061032b9190611f05565b610d45565b60405161033d9190611a89565b60405180910390f35b34801561035257600080fd5b5061036d60048036038101906103689190611a1b565b610f6d565b60405161037a9190611a89565b60405180910390f35b34801561038f57600080fd5b506103aa60048036038101906103a59190611a1b565b610fb0565b6040516103b79190611e49565b60405180910390f35b3480156103cc57600080fd5b506103e760048036038101906103e291906120ba565b610fd0565b6040516103f49190611b7c565b60405180910390f35b34801561040957600080fd5b50610424600480360381019061041f9190612129565b611152565b6040516104319190612169565b60405180910390f35b60046020528060005260406000206000915054906101000a900473ffffffffffffffffffffffffffffffffffffffff1681565b600080600061016773ffffffffffffffffffffffffffffffffffffffff166315dacbea60e01b888888886040516024016104aa9493929190612193565b604051602081830303815290604052907bffffffffffffffffffffffffffffffffffffffffffffffffffffffff19166020820180517bffffffffffffffffffffffffffffffffffffffffffffffffffffffff83818316178352505050506040516105149190612214565b6000604051808303816000865af19150503d8060008114610551576040519150601f19603f3d011682016040523d82523d6000602084013e610556565b606091505b50915091508161056757601561057c565b8080602001905181019061057b9190612264565b5b60030b92505050949350505050565b600260009054906101000a900473ffffffffffffffffffffffffffffffffffffffff1673ffffffffffffffffffffffffffffffffffffffff163373ffffffffffffffffffffffffffffffffffffffff161461061b576040517f08c379a000000000000000000000000000000000000000000000000000000000815260040161061290612314565b60405180910390fd5b600260009054906101000a900473ffffffffffffffffffffffffffffffffffffffff1673ffffffffffffffffffffffffffffffffffffffff168173ffffffffffffffffffffffffffffffffffffffff16036106ab576040517f08c379a00000000000000000000000000000000000000000000000000000000081526004016106a290612380565b60405180910390fd5b600360008273ffffffffffffffffffffffffffffffffffffffff1673ffffffffffffffffffffffffffffffffffffffff16815260200190815260200160002060009054906101000a900460ff16610737576040517f08c379a000000000000000000000000000000000000000000000000000000000815260040161072e906123ec565b60405180910390fd5b6000600360008373ffffffffffffffffffffffffffffffffffffffff1673ffffffffffffffffffffffffffffffffffffffff16815260200190815260200160002060006101000a81548160ff0219169083151502179055508073ffffffffffffffffffffffffffffffffffffffff167fe94479a9f7e1952cc78f2d6baab678adc1b772d936c6583def489e524cb6669260405160405180910390a250565b6000606060008061016773ffffffffffffffffffffffffffffffffffffffff1663618dc65e60e01b878760405160240161081092919061240c565b604051602081830303815290604052907bffffffffffffffffffffffffffffffffffffffffffffffffffffffff19166020820180517bffffffffffffffffffffffffffffffffffffffffffffffffffffffff838183161783525050505060405161087a9190612214565b6000604051808303816000865af19150503d80600081146108b7576040519150601f19603f3d011682016040523d82523d6000602084013e6108bc565b606091505b50915091507f4af4780e06fe8cb9df64b0794fa6f01399af979175bb988e35e0e57e594567bc82826040516108f292919061243c565b60405180910390a1816109165760156040518060200160405280600081525061091a565b6016815b8160030b9150809450819550505050509250929050565b6000600560008360070b60070b815260200190815260200160002060009054906101000a900460ff169050919050565b600260009054906101000a900473ffffffffffffffffffffffffffffffffffffffff1681565b600260009054906101000a900473ffffffffffffffffffffffffffffffffffffffff1673ffffffffffffffffffffffffffffffffffffffff163373ffffffffffffffffffffffffffffffffffffffff1614610a17576040517f08c379a0000000000000000000000000000000000000000000000000000000008152600401610a0e90612314565b60405180910390fd5b600073ffffffffffffffffffffffffffffffffffffffff168173ffffffffffffffffffffffffffffffffffffffff1603610a86576040517f08c379a0000000000000000000000000000000000000000000000000000000008152600401610a7d906124b8565b60405180910390fd5b600360008273ffffffffffffffffffffffffffffffffffffffff1673ffffffffffffffffffffffffffffffffffffffff16815260200190815260200160002060009054906101000a900460ff1615610b13576040517f08c379a0000000000000000000000000000000000000000000000000000000008152600401610b0a90612524565b60405180910390fd5b6001600360008373ffffffffffffffffffffffffffffffffffffffff1673ffffffffffffffffffffffffffffffffffffffff16815260200190815260200160002060006101000a81548160ff0219169083151502179055508073ffffffffffffffffffffffffffffffffffffffff167f6ae172837ea30b801fbfcdd4108aa1d5bf8ff775444fd70256b44e6bf3dfc3f660405160405180910390a250565b600080600061016773ffffffffffffffffffffffffffffffffffffffff16639b23d3d960e01b88888888604051602401610bee9493929190612193565b604051602081830303815290604052907bffffffffffffffffffffffffffffffffffffffffffffffffffffffff19166020820180517bffffffffffffffffffffffffffffffffffffffffffffffffffffffff8381831617835250505050604051610c589190612214565b6000604051808303816000865af19150503d8060008114610c95576040519150601f19603f3d011682016040523d82523d6000602084013e610c9a565b606091505b509150915081610cab576015610cc0565b80806020019051810190610cbf9190612264565b5b60030b92505050949350505050565b6000600360008373ffffffffffffffffffffffffffffffffffffffff1673ffffffffffffffffffffffffffffffffffffffff16815260200190815260200160002060009054906101000a900460ff169050919050565b60036020528060005260406000206000915054906101000a900460ff1681565b6000600260009054906101000a900473ffffffffffffffffffffffffffffffffffffffff1673ffffffffffffffffffffffffffffffffffffffff163373ffffffffffffffffffffffffffffffffffffffff1614610dd7576040517f08c379a0000000000000000000000000000000000000000000000000000000008152600401610dce90612314565b60405180910390fd5b6000600167ffffffffffffffff811115610df457610df3611bdf565b5b604051908082528060200260200182016040528015610e2d57816020015b610e1a6118a5565b815260200190600190039081610e125790505b509050610e3d60046001306112f4565b81600081518110610e5157610e50612544565b5b6020026020010181905250610e646118c5565b87816000018190525086816020018190525085816060018190525030816040019073ffffffffffffffffffffffffffffffffffffffff16908173ffffffffffffffffffffffffffffffffffffffff16815250506001816080019015159081151581525050848160a0019060070b908160070b81525050818160e0018190525060008160c0019015159081151581525050610efe308561132b565b816101000181905250600080610f1383611383565b91509150601660030b8214610f5d576040517f08c379a0000000000000000000000000000000000000000000000000000000008152600401610f54906125e5565b60405180910390fd5b8094505050505095945050505050565b6000600460008360070b60070b815260200190815260200160002060009054906101000a900473ffffffffffffffffffffffffffffffffffffffff169050919050565b60056020528060005260406000206000915054906101000a900460ff1681565b6000600360003373ffffffffffffffffffffffffffffffffffffffff1673ffffffffffffffffffffffffffffffffffffffff16815260200190815260200160002060009054906101000a900460ff1661105e576040517f08c379a000000000000000000000000000000000000000000000000000000000815260040161105590612677565b60405180910390fd5b60008061106d866000876114f2565b9250509150601660030b82146110b8576040517f08c379a00000000000000000000000000000000000000000000000000000000081526004016110af90612709565b60405180910390fd5b8360046000836000815181106110d1576110d0612544565b5b602002602001015160070b60070b815260200190815260200160002060006101000a81548173ffffffffffffffffffffffffffffffffffffffff021916908373ffffffffffffffffffffffffffffffffffffffff1602179055508060008151811061113f5761113e612544565b5b6020026020010151925050509392505050565b60003373ffffffffffffffffffffffffffffffffffffffff16600460008460070b60070b815260200190815260200160002060009054906101000a900473ffffffffffffffffffffffffffffffffffffffff1673ffffffffffffffffffffffffffffffffffffffff16146111fb576040517f08c379a00000000000000000000000000000000000000000000000000000000081526004016111f29061279b565b60405180910390fd5b600560008360070b60070b815260200190815260200160002060009054906101000a900460ff1615611262576040517f08c379a000000000000000000000000000000000000000000000000000000000815260040161125990612807565b60405180910390fd5b60006112708430338661166a565b9050601660030b81146112b8576040517f08c379a00000000000000000000000000000000000000000000000000000000081526004016112af90612899565b60405180910390fd5b6001600560008560070b60070b815260200190815260200160002060006101000a81548160ff0219169083151502179055508091505092915050565b6112fc6118a5565b604051806040016040528061131086611788565b815260200161131f85856117c9565b81525090509392505050565b611333611934565b82816020019073ffffffffffffffffffffffffffffffffffffffff16908173ffffffffffffffffffffffffffffffffffffffff168152505081816040019060070b908160070b8152505092915050565b6000808260008161010001516000015160070b1480156113af575060008161010001516040015160070b145b156113d2576276a70060030b8161010001516040019060070b908160070b815250505b60008061016773ffffffffffffffffffffffffffffffffffffffff163463ea83f29360e01b886040516024016114089190612c2c565b604051602081830303815290604052907bffffffffffffffffffffffffffffffffffffffffffffffffffffffff19166020820180517bffffffffffffffffffffffffffffffffffffffffffffffffffffffff83818316178352505050506040516114729190612214565b60006040518083038185875af1925050503d80600081146114af576040519150601f19603f3d011682016040523d82523d6000602084013e6114b4565b606091505b5091509150816114c757601560006114dc565b808060200190518101906114db9190612c8c565b5b8160030b91508095508196505050505050915091565b600080606060008061016773ffffffffffffffffffffffffffffffffffffffff1663e0f4059a60e01b89898960405160240161153093929190612d8e565b604051602081830303815290604052907bffffffffffffffffffffffffffffffffffffffffffffffffffffffff19166020820180517bffffffffffffffffffffffffffffffffffffffffffffffffffffffff838183161783525050505060405161159a9190612214565b6000604051808303816000865af19150503d80600081146115d7576040519150601f19603f3d011682016040523d82523d6000602084013e6115dc565b606091505b50915091508161163857601560008067ffffffffffffffff81111561160457611603611bdf565b5b6040519080825280602002602001820160405280156116325781602001602082028036833780820191505090505b5061164d565b8080602001905181019061164c9190612ea4565b5b8260030b9250809550819650829750505050505093509350939050565b600080600061016773ffffffffffffffffffffffffffffffffffffffff16635cfc901160e01b888888886040516024016116a79493929190612f13565b604051602081830303815290604052907bffffffffffffffffffffffffffffffffffffffffffffffffffffffff19166020820180517bffffffffffffffffffffffffffffffffffffffffffffffffffffffff83818316178352505050506040516117119190612214565b6000604051808303816000865af19150503d806000811461174e576040519150601f19603f3d011682016040523d82523d6000602084013e611753565b606091505b509150915081611764576015611779565b808060200190518101906117789190612264565b5b60030b92505050949350505050565b6000600160008360068111156117a1576117a0612f58565b5b60068111156117b3576117b2612f58565b5b8152602001908152602001600020549050919050565b6117d1611971565b600160048111156117e5576117e4612f58565b5b8360048111156117f8576117f7612f58565b5b0361183a5781816020019073ffffffffffffffffffffffffffffffffffffffff16908173ffffffffffffffffffffffffffffffffffffffff168152505061189f565b60048081111561184d5761184c612f58565b5b8360048111156118605761185f612f58565b5b0361189e5781816080019073ffffffffffffffffffffffffffffffffffffffff16908173ffffffffffffffffffffffffffffffffffffffff16815250505b5b92915050565b6040518060400160405280600081526020016118bf611971565b81525090565b6040518061012001604052806060815260200160608152602001600073ffffffffffffffffffffffffffffffffffffffff16815260200160608152602001600015158152602001600060070b81526020016000151581526020016060815260200161192e611934565b81525090565b6040518060600160405280600060070b8152602001600073ffffffffffffffffffffffffffffffffffffffff168152602001600060070b81525090565b6040518060a00160405280600015158152602001600073ffffffffffffffffffffffffffffffffffffffff1681526020016060815260200160608152602001600073ffffffffffffffffffffffffffffffffffffffff1681525090565b6000604051905090565b600080fd5b600080fd5b60008160070b9050919050565b6119f8816119e2565b8114611a0357600080fd5b50565b600081359050611a15816119ef565b92915050565b600060208284031215611a3157611a306119d8565b5b6000611a3f84828501611a06565b91505092915050565b600073ffffffffffffffffffffffffffffffffffffffff82169050919050565b6000611a7382611a48565b9050919050565b611a8381611a68565b82525050565b6000602082019050611a9e6000830184611a7a565b92915050565b611aad81611a68565b8114611ab857600080fd5b50565b600081359050611aca81611aa4565b92915050565b6000819050919050565b611ae381611ad0565b8114611aee57600080fd5b50565b600081359050611b0081611ada565b92915050565b60008060008060808587031215611b2057611b1f6119d8565b5b6000611b2e87828801611abb565b9450506020611b3f87828801611abb565b9350506040611b5087828801611abb565b9250506060611b6187828801611af1565b91505092959194509250565b611b76816119e2565b82525050565b6000602082019050611b916000830184611b6d565b92915050565b600060208284031215611bad57611bac6119d8565b5b6000611bbb84828501611abb565b91505092915050565b600080fd5b600080fd5b6000601f19601f8301169050919050565b7f4e487b7100000000000000000000000000000000000000000000000000000000600052604160045260246000fd5b611c1782611bce565b810181811067ffffffffffffffff82111715611c3657611c35611bdf565b5b80604052505050565b6000611c496119ce565b9050611c558282611c0e565b919050565b600067ffffffffffffffff821115611c7557611c74611bdf565b5b611c7e82611bce565b9050602081019050919050565b82818337600083830152505050565b6000611cad611ca884611c5a565b611c3f565b905082815260208101848484011115611cc957611cc8611bc9565b5b611cd4848285611c8b565b509392505050565b600082601f830112611cf157611cf0611bc4565b5b8135611d01848260208601611c9a565b91505092915050565b60008060408385031215611d2157611d206119d8565b5b6000611d2f85828601611abb565b925050602083013567ffffffffffffffff811115611d5057611d4f6119dd565b5b611d5c85828601611cdc565b9150509250929050565b6000819050919050565b611d7981611d66565b82525050565b600081519050919050565b600082825260208201905092915050565b60005b83811015611db9578082015181840152602081019050611d9e565b60008484015250505050565b6000611dd082611d7f565b611dda8185611d8a565b9350611dea818560208601611d9b565b611df381611bce565b840191505092915050565b6000604082019050611e136000830185611d70565b8181036020830152611e258184611dc5565b90509392505050565b60008115159050919050565b611e4381611e2e565b82525050565b6000602082019050611e5e6000830184611e3a565b92915050565b600067ffffffffffffffff821115611e7f57611e7e611bdf565b5b611e8882611bce565b9050602081019050919050565b6000611ea8611ea384611e64565b611c3f565b905082815260208101848484011115611ec457611ec3611bc9565b5b611ecf848285611c8b565b509392505050565b600082601f830112611eec57611eeb611bc4565b5b8135611efc848260208601611e95565b91505092915050565b600080600080600060a08688031215611f2157611f206119d8565b5b600086013567ffffffffffffffff811115611f3f57611f3e6119dd565b5b611f4b88828901611ed7565b955050602086013567ffffffffffffffff811115611f6c57611f6b6119dd565b5b611f7888828901611ed7565b945050604086013567ffffffffffffffff811115611f9957611f986119dd565b5b611fa588828901611ed7565b9350506060611fb688828901611a06565b9250506080611fc788828901611a06565b9150509295509295909350565b600067ffffffffffffffff821115611fef57611fee611bdf565b5b602082029050602081019050919050565b600080fd5b600061201861201384611fd4565b611c3f565b9050808382526020820190506020840283018581111561203b5761203a612000565b5b835b8181101561208257803567ffffffffffffffff8111156120605761205f611bc4565b5b80860161206d8982611cdc565b8552602085019450505060208101905061203d565b5050509392505050565b600082601f8301126120a1576120a0611bc4565b5b81356120b1848260208601612005565b91505092915050565b6000806000606084860312156120d3576120d26119d8565b5b60006120e186828701611abb565b935050602084013567ffffffffffffffff811115612102576121016119dd565b5b61210e8682870161208c565b925050604061211f86828701611abb565b9150509250925092565b600080604083850312156121405761213f6119d8565b5b600061214e85828601611abb565b925050602061215f85828601611a06565b9150509250929050565b600060208201905061217e6000830184611d70565b92915050565b61218d81611ad0565b82525050565b60006080820190506121a86000830187611a7a565b6121b56020830186611a7a565b6121c26040830185611a7a565b6121cf6060830184612184565b95945050505050565b600081905092915050565b60006121ee82611d7f565b6121f881856121d8565b9350612208818560208601611d9b565b80840191505092915050565b600061222082846121e3565b915081905092915050565b60008160030b9050919050565b6122418161222b565b811461224c57600080fd5b50565b60008151905061225e81612238565b92915050565b60006020828403121561227a576122796119d8565b5b60006122888482850161224f565b91505092915050565b600082825260208201905092915050565b7f4f6e6c79206f776e65722063616e2063616c6c20746869732066756e6374696f60008201527f6e00000000000000000000000000000000000000000000000000000000000000602082015250565b60006122fe602183612291565b9150612309826122a2565b604082019050919050565b6000602082019050818103600083015261232d816122f1565b9050919050565b7f43616e6e6f742072656d6f7665206f776e6572206173206d696e746572000000600082015250565b600061236a601d83612291565b915061237582612334565b602082019050919050565b600060208201905081810360008301526123998161235d565b9050919050565b7f41646472657373206973206e6f742061206d696e746572000000000000000000600082015250565b60006123d6601783612291565b91506123e1826123a0565b602082019050919050565b60006020820190508181036000830152612405816123c9565b9050919050565b60006040820190506124216000830185611a7a565b81810360208301526124338184611dc5565b90509392505050565b60006040820190506124516000830185611e3a565b81810360208301526124638184611dc5565b90509392505050565b7f496e76616c6964206d696e746572206164647265737300000000000000000000600082015250565b60006124a2601683612291565b91506124ad8261246c565b602082019050919050565b600060208201905081810360008301526124d181612495565b9050919050565b7f4164647265737320697320616c72656164792061206d696e7465720000000000600082015250565b600061250e601b83612291565b9150612519826124d8565b602082019050919050565b6000602082019050818103600083015261253d81612501565b9050919050565b7f4e487b7100000000000000000000000000000000000000000000000000000000600052603260045260246000fd5b7f4661696c656420746f20637265617465206e6f6e2d66756e6769626c6520746f60008201527f6b656e0000000000000000000000000000000000000000000000000000000000602082015250565b60006125cf602383612291565b91506125da82612573565b604082019050919050565b600060208201905081810360008301526125fe816125c2565b9050919050565b7f4f6e6c7920617574686f72697a6564206d696e746572732063616e2063616c6c60008201527f20746869732066756e6374696f6e000000000000000000000000000000000000602082015250565b6000612661602e83612291565b915061266c82612605565b604082019050919050565b6000602082019050818103600083015261269081612654565b9050919050565b7f4661696c656420746f206d696e74206e6f6e2d66756e6769626c6520746f6b6560008201527f6e00000000000000000000000000000000000000000000000000000000000000602082015250565b60006126f3602183612291565b91506126fe82612697565b604082019050919050565b60006020820190508181036000830152612722816126e6565b9050919050565b7f596f7520617265206e6f7420617574686f72697a656420746f20636c61696d2060008201527f74686973204e4654000000000000000000000000000000000000000000000000602082015250565b6000612785602883612291565b915061279082612729565b604082019050919050565b600060208201905081810360008301526127b481612778565b9050919050565b7f4e46542068617320616c7265616479206265656e20636c61696d656400000000600082015250565b60006127f1601c83612291565b91506127fc826127bb565b602082019050919050565b60006020820190508181036000830152612820816127e4565b9050919050565b7f4661696c656420746f207472616e73666572206e6f6e2d66756e6769626c652060008201527f746f6b656e000000000000000000000000000000000000000000000000000000602082015250565b6000612883602583612291565b915061288e82612827565b604082019050919050565b600060208201905081810360008301526128b281612876565b9050919050565b600081519050919050565b600082825260208201905092915050565b60006128e0826128b9565b6128ea81856128c4565b93506128fa818560208601611d9b565b61290381611bce565b840191505092915050565b61291781611a68565b82525050565b61292681611e2e565b82525050565b612935816119e2565b82525050565b600081519050919050565b600082825260208201905092915050565b6000819050602082019050919050565b61297081611ad0565b82525050565b600082825260208201905092915050565b600061299282611d7f565b61299c8185612976565b93506129ac818560208601611d9b565b6129b581611bce565b840191505092915050565b600060a0830160008301516129d8600086018261291d565b5060208301516129eb602086018261290e565b5060408301518482036040860152612a038282612987565b91505060608301518482036060860152612a1d8282612987565b9150506080830151612a32608086018261290e565b508091505092915050565b6000604083016000830151612a556000860182612967565b5060208301518482036020860152612a6d82826129c0565b9150508091505092915050565b6000612a868383612a3d565b905092915050565b6000602082019050919050565b6000612aa68261293b565b612ab08185612946565b935083602082028501612ac285612957565b8060005b85811015612afe5784840389528151612adf8582612a7a565b9450612aea83612a8e565b925060208a01995050600181019050612ac6565b50829750879550505050505092915050565b606082016000820151612b26600085018261292c565b506020820151612b39602085018261290e565b506040820151612b4c604085018261292c565b50505050565b6000610160830160008301518482036000860152612b7082826128d5565b91505060208301518482036020860152612b8a82826128d5565b9150506040830151612b9f604086018261290e565b5060608301518482036060860152612bb782826128d5565b9150506080830151612bcc608086018261291d565b5060a0830151612bdf60a086018261292c565b5060c0830151612bf260c086018261291d565b5060e083015184820360e0860152612c0a8282612a9b565b915050610100830151612c21610100860182612b10565b508091505092915050565b60006020820190508181036000830152612c468184612b52565b905092915050565b6000612c5982611a48565b9050919050565b612c6981612c4e565b8114612c7457600080fd5b50565b600081519050612c8681612c60565b92915050565b60008060408385031215612ca357612ca26119d8565b5b6000612cb18582860161224f565b9250506020612cc285828601612c77565b9150509250929050565b600081519050919050565b600082825260208201905092915050565b6000819050602082019050919050565b6000612d048383612987565b905092915050565b6000602082019050919050565b6000612d2482612ccc565b612d2e8185612cd7565b935083602082028501612d4085612ce8565b8060005b85811015612d7c5784840389528151612d5d8582612cf8565b9450612d6883612d0c565b925060208a01995050600181019050612d44565b50829750879550505050505092915050565b6000606082019050612da36000830186611a7a565b612db06020830185611b6d565b8181036040830152612dc28184612d19565b9050949350505050565b600081519050612ddb816119ef565b92915050565b600067ffffffffffffffff821115612dfc57612dfb611bdf565b5b602082029050602081019050919050565b6000612e20612e1b84612de1565b611c3f565b90508083825260208201905060208402830185811115612e4357612e42612000565b5b835b81811015612e6c5780612e588882612dcc565b845260208401935050602081019050612e45565b5050509392505050565b600082601f830112612e8b57612e8a611bc4565b5b8151612e9b848260208601612e0d565b91505092915050565b600080600060608486031215612ebd57612ebc6119d8565b5b6000612ecb8682870161224f565b9350506020612edc86828701612dcc565b925050604084015167ffffffffffffffff811115612efd57612efc6119dd565b5b612f0986828701612e76565b9150509250925092565b6000608082019050612f286000830187611a7a565b612f356020830186611a7a565b612f426040830185611a7a565b612f4f6060830184611b6d565b95945050505050565b7f4e487b7100000000000000000000000000000000000000000000000000000000600052602160045260246000fdfea26469706673582212202b8e1ead4affc5f9e5d2366f4ff19116648612c325cc3d4a355b259501ed9db264736f6c63430008120033",
  "linkReferences": {},
  "deployedLinkReferences": {}
}